:0300000002004CAF
:200008000000E2FBEAF2802C0000E0FBEAF08024E6B50202EBF62200E2B50202EBF22200DE
:20002800E0B50202EBF02230F6E0A88220F5D3EAC6F582228B822230F6E6A88220F5D980EE
:01004800CFE8
:0300A5000200490D
:030049000200A80A
:2000A8001201221200B080FE90008012013490004D12014590004112014590004B120145DB
:2000C80090004512014590002012014590004D12014590004F1201459000521201459000AD
:2000E800451201459000C012013490005012014590005212014590004F12014590004A122F
:200108000145900045120145900043120145900054120145900053020145900038120134C3
:2001280090000E120134900001020134AE828E90C2B0D2B190000A120156C2B122AE828E71
:2001480090D2B0D2B190000A120156C2B122AE82AF837C007D00C3EC9EED9F50117B00BB9F
:0F016800BA0050030B80F80CBC00EB0D80E822AE
:06007B00E478FFF6D8FD59
:200059007900E94400601B7A0090017B780175A000E493F2A308B8000205A0D9F4DAF275D1
:02007900A0FFE6
:200081007800E84400600A790175A000E4F309D8FC7800E84400600C7900900001E4F0A37D
:0400A100D8FCD9FAB4
:0D004C00758107120177E58260030200490B
:04017700758200226B
:00000001FF
