:0400000002001132B7
:03000B000200767A
:0C006A0075082C75090A750A0102000EC9
:03000E000200A14C
:10007600C0E0C0D0150874FFB508021509E50845AB
:10008600097013E50A25E0F50AE50A7003750A0109
:1000960075082C75090AD0D0D0E0325389F043890F
:1000A60003758C00758A00D2A9D2AFD28C74FF6515
:0500B6000AF59080F83E
:06004000E478FFF6D8FD94
:10001E007900E94400601B7A009000BF780175A05A
:10002E0000E493F2A308B8000205A0D9F4DAF27541
:02003E00A0FF21
:100046007800E84400600A790175A000E4F309D855
:10005600FC7800E84400600C7900900001E4F0A30D
:04006600D8FCD9FAEF
:0D00110075810A1200BBE582600302000E3B
:0400BB007582002228
:00000001FF
