:0300000002004CAF
:200008000000E2FBEAF2802C0000E0FBEAF08024E6B50202EBF62200E2B50202EBF22200DE
:20002800E0B50202EBF02230F6E0A88220F5D3EAC6F582228B822230F6E6A88220F5D980EE
:01004800CFE8
:0300A5000200490D
:030049000200A80A
:2000A8001201A61201350200B1758906758A00758C00D28C208D14742BB58A02800DAE8ABC
:2000C8007F008E828F831200D980E9C28CC28D80DBAE82AF83750801750900900007C0076F
:2000E800C0061201B8D006D00775120A7513008E828F83C007C006120234E5828583F02427
:2001080030F582E435F0F583120202D006D00775120A7513008E828F8312025DE5828583D1
:20012800F02430F582E435F0F583020202E4F508F5099000001201B89000501202029000B5
:20014800521202029000451202029000531202029000531202029000201202029000541296
:20016800020290004F1202027508017509009000001201B890004312020290004F12020249
:2001880090005512020290004E12020290005412020290003A120202900020020202900048
:2001A800381201F190000C1201F19000010201F1AE82AF83E4F50AF50B750C40F50D750E4B
:2001C80014F50F751054F511E5082508FCE50933EC240AF98704098705EC2EFEED3FFF74FF
:2001E800804EF5828F830201F1AE828E90C2B0D2B190000A120213C2B122AE828E90D2B043
:20020800D2B190000A120213C2B122AE82AF837C007D00C3EC9EED9F50117B00BBBA005028
:0C022800030B80F80CBC00EB0D80E822FA
:200234007A10E4FBFCE58225E0F582E58333F583EB33FBEC33FCEB9512F5F0EC95134006CA
:09025400FCABF0438201DADD226B
:06007B00E478FFF6D8FD59
:200059007900E94400601B7A009002AE780175A000E493F2A308B8000205A0D9F4DAF2759D
:02007900A0FFE6
:20025D00E512451360467A01E51225E0F512E513334012F513E5829512E583951340030A1E
:20027D0080E6C3E51313F513E51213F512C3E5829512F5F0E58395134005F58385F082C3D7
:0D029D00E51313F513E51213F512DAE12253
:200081007800E84400600A790175A000E4F309D8FC7800E84400600C7900900001E4F0A37D
:0400A100D8FCD9FAB4
:0D004C007581131202AAE5826003020049CB
:0402AA007582002237
:00000001FF
