:040000000200543274
:03000B000200B937
:200010000000E2FBEAF2802C0000E0FBEAF08024E6B50202EBF62200E2B50202EBF22200D6
:20003000E0B50202EBF02230F6E0A88220F5D3EAC6F582228B822230F6E6A88220F5D980E6
:01005000CFE0
:0C00AD0075082C75090A750A0102005143
:030051000200F4B6
:2000B900C0E0C007C006C0D075D000AE08AF09EE24FFF508EF34FFF509E50845097013E5E6
:2000D9000A25E0F50AE50A7003750A0175082C75090AD0D0D006D007D0E0325389F043891F
:1500F90003758C00758A00D2A9D2AFD28C74FF650AF59080F8B6
:06008300E478FFF6D8FD51
:200061007900E94400601B7A00900112780175A000E493F2A308B8000205A0D9F4DAF27532
:02008100A0FFDE
:200089007800E84400600A790175A000E4F309D8FC7800E84400600C7900900001E4F0A375
:0400A900D8FCD9FAAC
:0D00540075810A12010EE582600302005161
:04010E0075820022D4
:00000001FF
