:10000000C8150020791C0000751C0000751C00003C
:1000100000000000000000000000000000000000E0
:10002000000000000000000000000000751C00003F
:100030000000000000000000751C0000710B0000B3
:10004000751C0000751C0000751C0000751C00006C
:1000500021030000751C0000751C0000751C0000C9
:10006000751C0000751C0000751C000000000000DD
:100070000000000091060000751C0000751C0000C7
:10008000ED030000751C0000751C0000000000005E
:1000900000000000751C0000751C0000751C0000AD
:1000A000751C000010B5064C2378002B07D1054BBA
:1000B000002B02D0044800E000BF0123237010BDD4
:1000C0006800002000000000F4330000084B10B569
:1000D000002B03D00749084800E000BF0748036829
:1000E000002B00D110BD064B002BFBD09847F9E741
:1000F000000000006C000020F4330000F433000026
:100100000000000010B500F0C5FC00F0DDFC00F0C0
:100110009BF900F043F801F05DF800F0EBFE0020E1
:1001200000F0B2FF0621002000F014FD084C094B3E
:1001300020705021185C00F0C7FF01E000F094FF30
:1001400000F0ECFF0128F9D000F0F0FC606010BD79
:1001500084000020A82A0000F8B50D4C0D4F0E4E6B
:1001600000F082FF00F0E2FC63680500C31AB342AE
:10017000F6D90621002000F0EDFC23788342F8D068
:1001800020705021385C00F09FFF6560E8E7C046B2
:1001900084000020A82A00001F4E000010B572B68F
:1001A0008021544B09021A680F200A431A605961D2
:1001B0004F22002199541A684F490A401A60802240
:1001C0003C2192045A615A5C82435A54592235396F
:1001D000995462B6494A393193690B439361484A4D
:1001E000484B53805378DB09FCD10121464A1378F0
:1001F0000B4313701378DB07FCD45378DB09F9D178
:10020000B023D1691B040B43D3613F4A5378DB0908
:10021000FCD13E4B136180239B01D3603A4A537853
:10022000DB09FCD1022113780B431370364A537853
:10023000DB09FCD11021C120FF24354A8133FF3373
:10024000D15080001358A3433F3C234313508023D5
:1002500011602A4A1B01116A0B431362284A2D4B75
:1002600053805378DB09FCD1A0232B4ADB00138099
:10027000D37BDB09FCD1042153790B435371102349
:1002800001215383F133FF331383537B0B435373A8
:10029000214AD37BDB09FCD1022113880B43138055
:1002A0001D4AD37BDB09FCD18021C420FF24184ADE
:1002B00081334902FF33D15080001358A3433F3CA0
:1002C00023431350802311600C4ADB00116A0B4357
:1002D0001362A023114ADB001380D37BDB09FCD11E
:1002E000022113880B4313800C4AD37BDB09FCD11A
:1002F00010BDC04600440041FFFFFFFD0004004068
:10030000000C00400340000000180040FFFF000008
:1003100000E100E014400000002C004200280042F0
:10032000802310B5294A9B0111690B431361284BA7
:10033000284A1B6A9B0108D5274B5380D37BDB09D6
:10034000FCD1128A254B1A8210BD234B5380D37BDC
:10035000DB09FCD1214C138A228A9B1A9BB21A001A
:10036000C23AFF3A7E2A0ED91D4A9A187E2A11D91E
:100370001C4A9A187E2A17D8237E202B1ED00023D1
:1003800023766361E0E763695B086361237E013381
:100390002376D9E763695A0880231B0613436361F8
:1003A000237E01332376CFE70F4A944663447E2BA6
:1003B000E5D8A368002BE2D09847E0E76369636063
:1003C000E368002BDBD060689847D8E7001800404E
:1003D00000440041002800421080FFFF8C000020F4
:1003E0003FFCFFFF3FFAFFFF3FF8FFFF0121024AFA
:1003F000937B0B4393737047002C0042F0B5C646C5
:100400000F4B104F9846431CFF333E0000249C4680
:1004100000B54C3662463B00002511780132A142FE
:1004200001DD19680D430433B342F6D14246A300FF
:10043000AA430134C250402CECD104BC9046F0BD1C
:10044000FF0FCF01B02A00008A2210B5234C920082
:100450000021200002F0C3FA2000FFF7CFFF204B5D
:1004600020491A680A431A60996180231E4A5B007A
:10047000116A0B4313621D4A1D4B53805378DB09ED
:10048000FCD1C8231B4A9B001380D37BDB09FCD122
:100490007823FF331383174AD37BDB09FCD1012177
:1004A000537B0B435373134AD37BDB09FCD1C32427
:1004B000114BA4001959114808408021C90101437A
:1004C0001951802189011960022113880B4313807F
:1004D000084AD37BDB09FCD110BDC046A800002030
:1004E00000440041FF0FCF0100040040000C004019
:1004F000134000000020004200E100E0FF00FFFF89
:100500000200402900DD402128230748C35C012068
:1005100058408A235B005843044B18188018013058
:10052000FF3001707047C046A8020020A8000020DC
:1005300028238A2070B5194C4000E65C273B5E40BA
:100540007043174D2818FFF759FF2C23E35C5B0716
:1005500004D12C210722635C1A42FCD02C210722F3
:10056000635C1A42FCD12823E654E25CE15C273B41
:100570005A401433FF335A434B4301320133FF32A5
:10058000FF33AA18EB1813CB13C211001A680A60C4
:100590009A888A809B798B7170BDC046A802002022
:1005A000A8000020F8B54746CE4630234C25282029
:1005B000304C80B52200304FF95C304B4E009B1917
:1005C0002F4E385C5D5B36692E4BC0B225831E40D2
:1005D000D37BDB09FCD1002931D18A22520042436E
:1005E000294D274B5159AC1831431961616831438A
:1005F0001961C046C046C0460C32AD187C22A168C5
:10060000994631431961214B90461C0000205C340F
:10061000984400E001CC00F075FA4A4608CD334317
:1006200013614445F6D130230C22FA540121114ABA
:10063000937B0B4393730CBC90469946F8BD020123
:1006400012189200121852180F48920010580131D7
:100650000B4A0643C9B216613F2907DD2C21302021
:100660007A5C3B540132D3B27B54DFE73023F95438
:10067000DCE7C04600200042A8020020B02A0000AB
:100680000044004100F030FEA8000020302B0000A4
:1006900010B5FFF787FF10BD0B6803607047C046B9
:1006A0000B6812689B1A03607047C04670B50A68F1
:1006B00004681314251412042404240C120C1100D1
:1006C000260069435E43624389190C1409048918A2
:1006D000914292416B4352421B199B18DA17DC136B
:1006E000A2420CD1074C0C1912199142894149427E
:1006F0005B1A1B04120C13430133036070BD80238B
:100700001B06FAE70080FFFF70B512680C6813142F
:10071000251412042404240C120C11002600694331
:100720005E43624389190C1409048918914292416D
:100730006B4352421B199B18DA17DC13A2420CD1EF
:10074000074C0C1912199142894149425B1A1B044A
:10075000120C13430133036070BD80231B06FAE7BC
:100760000080FFFF70B516680D68002E35D0EA17BF
:10077000AB185340F217B1185140802252028B42FD
:1007800005D9490052008B42FBD8002A25D000240D
:10079000002907DA16E08B4201D314435B1A5B0091
:1007A000520801D0002BF6D100228B425241A418EE
:1007B000754001D4046070BD80231B069C42F9D0B3
:1007C0006442F7E78B4205D249085208ECD0002B6F
:1007D000E1D1EDE75B1A1400F6E780242406E9E78F
:1007E00000680A680123904200DC0023D8B27047F9
:1007F00000680A680123904200DB0023D8B27047EA
:100800000B6812689B1803607047C04610B504005F
:100810004C22002102F0E3F8200010BDF8B50700DB
:100820000E004C2200213D0002F0D9F83C004C356E
:1008300020003100043400F0B1FAAC42F8D13800A5
:10084000F8BDC046F0B5C64600B50D0082B04C22DA
:100850000021804602F0C3F86B46DE1C0023337093
:10086000AB68002B22D0EB683200290001A8984722
:1008700001A9404600F092FA434601241F1DAB68CF
:100880003470002B12D03200290001A8EB6801342B
:100890009847E4B2380001A900F080FA0437132C1D
:1008A000EDD1404602B004BC9046F0BD01F020FA04
:1008B0007047C04670B505000024280000F0AEFA6D
:1008C000010020000134E4B2FFF71AFE0435132CB6
:1008D000F3D170BD70B51600040086B00D0004A8F9
:1008E0001100FFF7D9FE04A905A800F051FA05A9E7
:1008F00001A800F057FA310005A8FFF7CDFE260049
:1009000005A902A800F044FA4C36210001AA03A868
:1009100000F0A4FA290002AA04A800F09FFA04AA91
:1009200003A905A800F07EFA200005A9043400F010
:1009300035FA0435B442E8D106B070BD70B5060092
:1009400004000D004C3629002000043400F0A2FA07
:100950000435B442F7D170BD70B5060004000D0037
:1009600082B04C362A002100684600F05BFA6946E6
:1009700001A800F029FA200001A9043400F00EFAC1
:100980000435B442EED102B070BDC0461E213A4AD1
:1009900053688B431C390B435360384A06319369C3
:1009A0000B4301219361364A13780B43137013787C
:1009B000DB0702D55378DB09F9D18021314A136A6C
:1009C0008B4313622E4B304A9A60304A5A605A78F1
:1009D000D209FCD18622D2015A80294A5378DB09F8
:1009E000FCD18021274A938C8B439384D368DB0608
:1009F000FCD5C021D36A09011B0C1B040B438021C9
:100A0000D362D36AC9049B019B090B43D362D36AA7
:100A10001F49194080235B020B43D362194AD368F4
:100A2000DB06FCD58123918C9B000B439384154AF4
:100A3000D368DB06FCD5802193680B4393609368F1
:100A400040390B439360936830390B430221936024
:100A5000938C0B4393840B4AD368DB06FCD5094A7D
:100A600093681B06FCD593685B06F9D5054A936825
:100A7000DB06FCD57047C046004000410004004042
:100A8000000C004000080040034000000306010085
:100A9000FFFF00FC10B5094800F034F8FFF776FFBF
:100AA0000023074A93605378DB09FCD1054B536060
:100AB000034A5378DB09FCD110BDC046204E00002C
:100AC000000C004000070300C0200B490B4B0C4AF0
:100AD0004B60136A00061B021B0A034313620023C8
:100AE0008B6007330B608021136A09061B021B0A07
:100AF0000B4313627047C04610E000E07FBB00006C
:100B000000ED00E080B584B000AF78600023FB60AA
:100B1000FA687B689A4204D2C046FB680133FB60E6
:100B2000F6E7C046BD4604B080BDC046014B986E96
:100B30007047C0460C03002000B583B000900191BF
:100B40006A460349684600F01BF880B203B000BD56
:100B50000C03002000B583B0009001916A46034960
:100B6000684600F00DF8C0B203B000BD0C030020D1
:100B7000024A936E013393667047C0460C0300200F
:100B8000F0B557464E46DE4645461300E0B5914661
:100B90001B68526885B0D31A0C0001931900574B9B
:100BA0008246994246D80D0001352900544801F08B
:100BB000D7F903006B439B4680235B0498460123CF
:100BC00082469C460021676E0A235B42FB1813D4C1
:100BD000BD009B00651918592E68236E9A19824230
:100BE0000DD8801BC01A013721662860172F10D935
:100BF0006166834510D800273B000E33E8E7424684
:100C0000D21A6346921B1018013723662860172FEB
:100C1000EED867668345D7D9514601F0A1F90300A4
:100C20004A461068181805B03CBC90469946A24642
:100C3000AB46F0BD324B99423BD00B0E9846002399
:100C40009B465B4602934346210002AA504603930B
:100C5000FFF796FF0A23616E5B420006CB1826D48D
:100C60008D009B0065191F59226E2B689E18B74294
:100C700010D3FB1A9B1A5A46013122662B601729A2
:100C800013D95A466266019AC3189A42D9D3984238
:100C9000D7D8C5E780267604B21AD31A0122DB1909
:100CA000013122662B601729EBD86166EBE7183318
:100CB000D6E70A23656E5B42EB181DD4AE00A61979
:100CC0009B003268216E1859531898420AD3831A30
:100CD00000225B1A226601353360172D0AD90022E3
:100CE00062669DE780235B045B1A9B1A01221B1836
:100CF0002266F0E7656693E71833DFE7FEFFFF0043
:100D0000FFFFFF00F0B54F464646D646174BC0B52D
:100D10009A461E00602353449946154B154C98463D
:100D2000154F2000154901F0A1F9454620004D431B
:100D3000124901F015F97843114A2B1AAC18241AFC
:100D4000854200D31C0023021B0A08C64E45E8D189
:100D50005346DB6D5A425341524613660023536695
:100D60001CBC90469946A246F0BDC0460C0300202C
:100D70004E9C000097D32D01B32F0000A4D100009A
:100D8000ABFFFF7F10B50400FFF786FC200010BD0D
:100D900010B50400FFF780FC200010BD0B68036055
:100DA0007047C046802310B5040082B00A005B0281
:100DB000694601A80093FFF773FC01A92000FFF723
:100DC0006BFC200002B010BD70B50E00002582B093
:100DD000040001A930000195FFF70AFD002803D0A7
:100DE0002560200002B070BD802501A96D02300091
:100DF0000195FFF7F5FC0028F2D131002000FFF744
:100E00004BFCEEE710B5040082B00B8801A90193FA
:100E1000FFF742FC200002B010BDC04600688012FF
:100E2000C0B2704710B5040082B001A8FFF7E8FC1B
:100E300001A92000FFF730FC200002B010BDC04621
:100E400010B5040082B001A8FFF72AFC01A9200018
:100E5000FFF722FC200002B010BDC04610B5040010
:100E600082B001A8FFF750FC01A92000FFF714FC95
:100E7000200002B010BDC04610B5040082B001A829
:100E8000FFF770FC01A92000FFF706FC200002B06C
:100E900010BDC04610B50400FFF708FC200010BDCF
:100EA00030B5802585B002AA0400AD0203A80295E2
:100EB000FFF72AFC03A901A8FFF7EEFB802303A993
:100EC0005B0201A80393FFF793FC00280CD102A951
:100ED00003A801AA0295FFF7E3FB03A92000FFF78F
:100EE000DBFB200005B030BD01A92000FFF7D4FBDB
:100EF000F7E7C04670B50B4C0025260084B001A86A
:100F0000C4360021256000F067F901A9300000F027
:100F10003BF9211D300000F03FF9034B1D6504B083
:100F200070BDC04678030020F8030020F0B54746A6
:100F3000CE46202380B5494CA9B0E55C0700002DC2
:100F400024D1474C15AE2200210008CAC43130001C
:100F500000F028F9C4222368A25801332360934289
:100F600000D36FE03D00340021002800FFF70AFFA6
:100F7000043428AB04359C42F6D13000FFF798FCCE
:100F8000380029B00CBC90469946F0BD344B02A8FD
:100F900098461A00414608CAC43100F003F9314DA1
:100FA00015AE29002A0015315432FF312B6D300067
:100FB00000F0F8F8434642461B684146013313608F
:100FC000C4228A58934201D300230B608A222B6DDE
:100FD0005200AA5801332B65934201D300232B659D
:100FE000606A01F063FC8146A06A01F05FFC011CAD
:100FF000484601F0D3F98F21C90501F017FBFC2108
:10100000890501F039F801F031FC01AA01903100A5
:1010100002A8FFF75FFC636AA26A0133636293422E
:1010200012D23D0002AC210028000434FFF7AAFED2
:101030000435B442F7D12000FFF73AFC02A8FFF7CD
:1010400037FC9DE725608DE72900D02250314046CE
:1010500001F0BCFC00222023E254E2E7F804002067
:1010600078030020F803002000B595B001A8FFF731
:101070005DFF01A8FFF71EFCFFF75AFA01A8FFF772
:1010800017FC15B000BDC046F0B50D4C002625007C
:10109000070040C585B0280000F096F8C434390038
:1010A00001A800F099F801A9200000F06DF82900CE
:1010B000200000F071F82023024AD65405B0F0BD9C
:1010C00078030020F8040020F0B5C646114C002536
:1010D0002600804600B5543684B0256530001534AE
:1010E0000F00FF3400F070F8414601A800F074F8DA
:1010F00001A9200000F048F83100200000F04CF871
:1011000001212022044B5D629F62995404B004BC0B
:101110009046F0BDF8030020F80400202023014A87
:10112000D05C7047F804002010B5094C201D00F079
:1011300043F82000C43000F017F8064C200054306B
:1011400000F03AF820001530FF3000F00DF810BD27
:1011500078030020F80300207047C04610B5040053
:10116000FFF754FB200010BD0A230360024B4360CD
:10117000024B83607047C046591100005D110000AA
:1011800001604260836070470B6803604B68436096
:101190008B6883600800704710B543680800984763
:1011A00010BDC04670B504000800110085681A0023
:1011B0002000A847200070BD10B50400C022002107
:1011C00001F00DFC200010BD10B5C022002101F07F
:1011D00006FC10BD7047C04610B50D4A04000A2039
:1011E00003E01032506800280AD013788B42F8D1FF
:1011F000D368010092682000FFF7C2FF200010BDF5
:10120000044B054A0A212000FFF7BAFFF6E7C04663
:10121000442C0000311200002D12000010B500F027
:101220005FFDFEF76FFFFEF797FFC0467047C046B1
:1012300010B50400FFF7EAFA200010BD012A00D122
:10124000016000207047C046012A00D101600020E3
:101250007047C046012A05D0022A01D10B680360FD
:10126000002070470160FBE7F0B5147800228B5E28
:101270008BB01B040893962309AA5B0408A90500F8
:1012800007A80993FFF7F8FD2E492F4BA40061181A
:1012900006AA08A80693FFF737FA08A909A8FFF7D6
:1012A00077FD09AA07A96846FFF7CAFD694601A8A4
:1012B000FFF7A8FD01A902A8FFF7EEF9E02309AAAC
:1012C0009B0302A904A80993FFF71EFA049B1C14B0
:1012D0001B041B0CA2B20593002B29D01B4F372AED
:1012E00024D0661CF6B2B600BE19802324045B022B
:1012F00005AA07A908A8A40B0793FFF7D1F9391984
:1013000008AA09A8FFF700FA310005AA06A803AE4B
:10131000FFF7FAF906AA09A93000FFF771FA3100C0
:101320002800FFF735FD28000BB0F0BD3E00DCE7DC
:1013300024040649A40B03AE09193000FFF7ACF9E9
:10134000EDE7C046AC2B00009A190000D430000035
:10135000F0B58BB01100060001A8FFF79DF901A9B7
:1013600003A8FFF799F9802309AA5B0303A904A83E
:101370000993FFF7C9F9049B1C141B041B0CA2B2B0
:101380000593002B2BD01B4D2F0060370F2A03D065
:10139000631CDBB29B00FF18802305AA5B0207A930
:1013A00008A80793FFF77CF9290024046031A40BF7
:1013B000091908AA09A8FFF7A7F902AD05AA39007B
:1013C00006A8FFF7A1F906AA09A92800FFF718FA4D
:1013D00029003000FFF7DCFC30000BB0F0BD054900
:1013E0002404A40B02AD603109192800FFF754F959
:1013F000EEE7C0465431000010B586B0040011007D
:1014000001A8FFF749F901A903A8FFF745F98023CF
:1014100005AA5B0403A904A80593FFF775F9049BCB
:1014200002A8190C094B8900C918FFF735F9802368
:1014300005AA1B0202A904A80593FFF765F904A9F0
:101440002000FFF7A5FC200006B010BDD42C000042
:1014500070B5060004004C369621C8208900400073
:10146000FFF76AFB411E050089B20020FFF764FB0D
:10147000258060800434A642EED170BDF0B50C002A
:10148000D6464F46464681462500C0B5654BB0B0AE
:101490000993654B92460893C846FFF7B7F94C3558
:1014A00006E0638004239C460434E044AC4239D017
:1014B0002788002F00D1A0E00222A35E0AA91B0406
:1014C0000A931DAA3B0405A81D93FFF7D5FC05A9A7
:1014D00002A8FFF7E1F802A904A8FFF7DDF8089BCE
:1014E000002B00D19CE0099B1DAE04AA06A9300088
:1014F0000193984731004046FFF750FC6388013361
:101500009BB2BB42CDDB00239621C82063808900BB
:101510004000FFF711FB04239C4620800434E04484
:10152000AC42C5D1089B002B03D006A903220800BA
:1015300098473E4B0AA8F3603D4B0AACB360FFF7F7
:1015400065F9002398461DAE2F88002F66D0022231
:10155000AB5E05A91B04059306AA3B0404A80693E9
:10156000FFF78AFC04A903A8FFF796F803A905A8CA
:10157000FFF792F81F9B002B52D0F36805AA3100A9
:1015800006A8984706A92000FFF708FC6B880133DE
:101590009BB2BB4233DA04346B800435A642D3D10C
:1015A000B368002B03D00322310030009847534624
:1015B0000693204B06A909931F4B30000893FFF7B1
:1015C00041F931000AA8FFF7B9F93000FFF770F9C7
:1015D000089B002B03D006A90322080098470AA9FC
:1015E0004846FFF7B9F90AA8FFF762F9484630B054
:1015F0001CBC90469946A246F0BD059767E7434656
:1016000080216B8089002820FFF796FA0434288017
:101610000435A642C4D02F88002F98D10497A1E7A3
:1016200000F066FB511300003D120000F9130000AA
:10163000491200006912000055120000012A05D06D
:10164000022A01D10B680360002070470160FBE7AC
:10165000F0B5147800228B5E8BB01B0408939623A0
:1016600009AA1B0408A9050007A80993FFF704FCB1
:101670002E492F4BA400611806AA08A80693FFF76D
:1016800043F808A909A8FFF783FB09AA07A9684638
:10169000FFF7D6FB694601A8FFF7B4FB01A902A832
:1016A000FEF7FAFF802309AA9B0202A904A8099366
:1016B000FFF72AF8049B1C141B041B0CA2B2059311
:1016C000002B29D01B4F012A24D0661CF6B2B6008D
:1016D000BE19802324045B0205AA07A908A8A40B4D
:1016E0000793FEF7DDFF391908AA09A8FFF70CF8E0
:1016F000310005AA06A803AEFFF706F806AA09A955
:101700003000FFF77DF831002800FFF741FB28008B
:101710000BB0F0BD3E00DCE724040649A40B03AE89
:1017200009193000FEF7B8FFEDE7C046AC2B00000A
:1017300033330100F43100007047C04610B50A4B46
:1017400084B00393094B6946029304000092FFF7AB
:1017500079F8029B002B03D003226946684698471C
:10176000200004B010BDC046511600003D16000018
:101770007047C046C82310B5040084B012041B048F
:10178000029202A903AA01A80393FFF775FB01A91E
:1017900003A8FFF785FB03A92000FFF73FF820000F
:1017A00004B010BD012A00D1016000207047C0467E
:1017B00010B588B00400110001A8FEF76DFF01A963
:1017C00005A8FEF769FF802307AA5B0405A906A800
:1017D0000793FEF799FF069B04A8190C0D4B89008F
:1017E000C918FEF759FF802306AA1B0204A903A803
:1017F0000693FEF789FF802307AADB0103A902A84D
:101800000793FEF7FDFF02A92000FFF7C1FA2000B1
:1018100008B010BDD42C000070B5060004004C3692
:1018200080210A208900FFF787F9411E050089B24F
:101830000020FFF781F9258060800434A642EFD1B3
:1018400070BDC046F0B5CE46474680B52D4B8BB037
:1018500009932D4B0C0081460893FEF7D7FF002318
:1018600027004E4698464C372588002D45D0022249
:10187000A35E04A91B04049305AA2B0403A80593E3
:10188000FFF7FAFA03A902A8FEF706FF02A904A8C7
:10189000FEF702FF089B002B31D0099B04AA06A982
:1018A00005A80193984705A93000FFF777FA6388E8
:1018B00001339BB2AB4211DA638004340436A74291
:1018C000D2D1089B002B03D006A903220800984719
:1018D00048460BB00CBC90469946F0BD434680216B
:1018E000638089000A20FFF727F92080043404363A
:1018F000A742E6D02588002DB9D10395C2E700F0B4
:10190000F7F9C046B1170000A5170000012A00D161
:10191000016000207047C046F0B58BB01100060092
:1019200001A8FEF7B9FE01A903A8FEF7B5FEC02382
:1019300009AA5B0303A904A80993FEF7E5FE049B2B
:101940001C141B041B0CA2B20593002B29D0194FA9
:10195000172A24D0651CEDB2AD007D198023240424
:101960005B0205AA07A908A8A40B0793FEF798FE37
:10197000391908AA09A8FEF7C7FE290005AA06A872
:1019800002ADFEF7C1FE06AA09A92800FEF738FF3E
:1019900029003000FFF7FCF930000BB0F0BD3D002E
:1019A000DCE724040349A40B02AD09192800FEF763
:1019B00073FEEDE7FC31000070B5060004004C3604
:1019C000C821C8204900FFF7B7F8411E050089B2B9
:1019D0000020FFF7B1F8258060800434A642EFD1E3
:1019E00070BDC046F0B5CE46474680B52D4B8BB096
:1019F00009932D4B0C0081460893FEF707FF002347
:101A000027004E4698464C372588002D45D00222A7
:101A1000A35E04A91B04049305AA2B0403A8059341
:101A2000FFF72AFA03A902A8FEF736FE02A904A8C6
:101A3000FEF732FE089B002B31D0099B04AA06A9B1
:101A400005A80193984705A93000FFF7A7F9638817
:101A500001339BB2AB4211DA638004340436A742EF
:101A6000D2D1089B002B03D006A903220800984777
:101A700048460BB00CBC90469946F0BD4346C82181
:101A800063804900C820FFF757F8208004340436EB
:101A9000A742E6D02588002DB9D10395C2E700F012
:101AA00027F9C046191900000D190000012A05D0B8
:101AB000022A01D10B680360002070470160FBE738
:101AC000F0B5147800228B5E8BB01B040893C823FA
:101AD00009AA1B0408A9050007A80993FFF7CCF978
:101AE0002C49A400611808A8FEF7D6FD08A909A88A
:101AF000FFF74EF909AA07A96846FFF7A1F9694659
:101B000001A8FFF77FF901A902A8FEF7C5FD802310
:101B100009AA5B0302A904A80993FEF7F5FD049B3B
:101B20001C141B041B0CA2B20593002B29D01A4FC6
:101B30000F2A24D0661CF6B2B600BE1980232404F6
:101B40005B0205AA07A908A8A40B0793FEF7A8FD46
:101B5000391908AA09A8FEF7D7FD310005AA06A879
:101B600003AEFEF7D1FD06AA09A93000FEF748FE34
:101B700031002800FFF70CF928000BB0F0BD3E0043
:101B8000DCE724040449A40B03AE09193000FEF776
:101B900083FDEDE7F82B00005C3200007047C04683
:101BA00010B50A4B84B00393094B694602930400B5
:101BB0000092FEF747FE029B002B03D003226946EA
:101BC00068469847200004B010BDC046C11A000006
:101BD000AD1A0000012A05D0022A01D10B6803606A
:101BE000002070470160FBE730B5147800228B5E5F
:101BF00085B01B040293962305001B0403AA02A9C7
:101C000001A80393FFF738F9982303AA5B0302A9FD
:101C10006846240403930294FFF72EF96A4601A94B
:101C200002A8FFF7FFF802A903A8FFF7EBF82800C6
:101C300003A9FFF735F9280005B030BD7047C0464D
:101C400010B50A4B84B00393094B69460293040014
:101C50000092FEF7F7FD029B002B03D0032269469A
:101C600068469847200004B010BDC046E91B00003C
:101C7000D51B0000FEE700001148124970B58842EC
:101C800004D00023104CCA18A24213D300210F4BDA
:101C90000F4A934212D3FF210E4B0F4A8B4393609E
:101CA00080230E4A51680B43536000F06BFEFFF730
:101CB000B5FAFEE7C55804331560E4E702C3E8E768
:101CC000F4330000000000206800002068000020BD
:101CD000C80500200000000000ED00E000400041C9
:101CE000014A024B1A60704740420F00000000207A
:101CF00010B500F03FFE00000123214A116819428F
:101D000000D113601F4A1168194200D113600123EA
:101D10001D4A1168194200D113601C4A116819420A
:101D200000D1136001231A4A1168194200D11360CF
:101D3000184A1168194200D113600123164A11682C
:101D4000194200D11360154A1168194200D113607D
:101D50000123134A1168194200D11360114A116816
:101D6000194200D1136001230F4A1168194200D1B2
:101D700013600E4A1168194200D113607047C046C3
:101D8000500500204C050020480500204405002097
:101D9000400500203C0500203805002034050020C7
:101DA000300500202C0500202805002024050020F7
:101DB0000123164A1168194200D11360144A1168B0
:101DC000194200D113600123124A1168194200D14F
:101DD0001360114A1168194200D1136001230F4AA0
:101DE0001168194200D113600D4A1168194200D1DF
:101DF000136001230B4A1168194200D113600A4A8B
:101E00001168194200D113607047C0467005002068
:101E10006C05002068050020640500206005002096
:101E20005C05002058050020540500200123164AB7
:101E30001168194200D11360144A1168194200D187
:101E400013600123124A1168194200D11360114A2C
:101E50001168194200D1136001230F4A1168194219
:101E600000D113600D4A1168194200D1136001239B
:101E70000B4A1168194200D113600A4A11681942CD
:101E800000D113607047C046900500208C050020EB
:101E90008805002084050020800500207C050020A6
:101EA00078050020740500200123214A1168194299
:101EB00000D113601F4A1168194200D11360012339
:101EC0001D4A1168194200D113601C4A1168194259
:101ED00000D1136001231A4A1168194200D113601E
:101EE000184A1168194200D113600123164A11687B
:101EF000194200D11360154A1168194200D11360CC
:101F00000123134A1168194200D11360114A116864
:101F1000194200D1136001230F4A1168194200D100
:101F200013600E4A1168194200D113607047C04611
:101F3000C0050020BC050020B8050020B405002025
:101F4000B0050020AC050020A8050020A405002055
:101F5000A00500209C050020980500209405002085
:101F6000002243088B4274D303098B425FD3030AD8
:101F70008B4244D3030B8B4228D3030C8B420DD3EB
:101F8000FF22090212BA030C8B4202D31212090279
:101F900065D0030B8B4219D300E0090AC30B8B42B7
:101FA00001D3CB03C01A5241830B8B4201D38B0365
:101FB000C01A5241430B8B4201D34B03C01A52410A
:101FC000030B8B4201D30B03C01A5241C30A8B424D
:101FD00001D3CB02C01A5241830A8B4201D38B0238
:101FE000C01A5241430A8B4201D34B02C01A5241DC
:101FF000030A8B4201D30B02C01A5241CDD2C3094E
:102000008B4201D3CB01C01A524183098B4201D3C9
:102010008B01C01A524143098B4201D34B01C01AB4
:10202000524103098B4201D30B01C01A5241C3082C
:102030008B4201D3CB00C01A524183088B4201D39B
:102040008B00C01A524143088B4201D34B00C01A87
:102050005241411A00D20146524110467047FFE7F3
:1020600001B5002000F006F802BDC0460029F7D0F7
:1020700076E770477047C046F0B5C6464E02470245
:10208000760A7B0A4400C50FF7004800984600B561
:10209000240E2A00DB00000EC90FBC468D4267D01B
:1020A000221A002A00DCA5E000283AD1002F00D136
:1020B00093E0511E002900D0BCE00124DB1B5A0133
:1020C00046D59B019E09300000F036FC053886405D
:1020D000844200DD9DE0041B320020200134E240F8
:1020E000041BA64033005E1EB341002413435A076D
:1020F00004D00F221A40042A00D004335A0129D5F3
:102100000134FF2C00D181E02A009B015B0AE4B27C
:102110005B02E405580AD2072043104304BC9046F2
:10212000F0BDFF2CE3D080213800C9040843844669
:102130001B2A00DD82E020206146D140821A6046E1
:1021400090400200501E82410A439B1A5A01B8D4A3
:102150005A07CED1DE082A00FF2C3AD1002E00D13A
:10216000AEE08023DB0333435B025B0AFF24CFE74F
:10217000211A002952DD002831D0FF2CB7D0802051
:102180003E00C0040643B4461B2900DDAAE0202619
:102190006046C840711A66468E4031004E1EB141FD
:1021A00001435B185901D3D50134FF2C00D187E0DE
:1021B000012278491A405B080B40134397E7002C33
:1021C00000D0A7E0002B00D0B6E03B1E62D1002675
:1021D000002273025B0AE4B29AE7140087E7002F3B
:1021E0004DD0481E002857D1634401245A01AFD571
:1021F0000224DDE7002A24D1621CD2B2012ADEDDEE
:10220000DE1B720135D5FE1A0D005CE72A000023A3
:102210007EE73300604A241A134068E7002963D13F
:10222000611CC8B201284EDDFF2949D063445B0818
:102230000C005CE7FF2A41D00A0079E701229B1AD3
:1022400084E7002C1DD0FF2822D08024E4045242D1
:1022500023431B2A00DD8AE01C002025D440AA1A53
:1022600093405A1E9341234362460400D31A0D0043
:1022700025E7002E00D026E700220024A9E70C0065
:1022800035E7002B4DD0D243002AEDD0FF28E0D116
:102290006346FF240D002AE7FF290FD0010073E7F2
:1022A000002B61D0FF24002F00D120E7802241467F
:1022B000D203114202D0164200D13B00FF2416E7A0
:1022C000FF24002324E7002CEAD1002B58D0002F54
:1022D00000D10CE763445A0100D439E72E4A0C00C0
:1022E000134004E701215CE7002C1ED1002B40D0F5
:1022F000C94300290BD0FF2836D01B2947DC1C001E
:102300002026CC40711A8B40591E8B4123436344D5
:10231000040047E7002B18D13B1E2DD00D00FF24F1
:10232000E5E63B0004000D00E1E6FF281CD0802418
:10233000E40449422343E0E7002F00D1D7E6DE1B47
:1023400072011FD5FB1A0D00D1E6FF24002F00D12A
:10235000CDE680224046D2031042AFD01642ADD126
:102360003B000D00FF24C2E66346FF24BFE60123C5
:102370007AE73B000400BAE680260022F603F0E686
:102380003B00B4E6331E00D0E2E6002221E7012341
:10239000BDE7C046FFFFFF7DFFFFFFFBF0B55746DF
:1023A0004E46DE464546E0B544024300C60F83B0C4
:1023B0000F1C640A1B0EB24653D0FF2B27D080227D
:1023C000E400D20414437F225242904698440023F2
:1023D00099469B467D027800FB0F6D0A000E009324
:1023E00024D0FF2846D080230021ED00DB041D43CC
:1023F0007F384746381A4F460F43BF00B94633006F
:10240000009A874F53404A46BA5801939746002C8A
:102410004ED108239946F7339846FD3B9B467D02F3
:102420007800FB0F6D0A000E0093DAD1002D26D143
:10243000002001213300009A7A4F53404246101A7F
:102440004A460A439200BA581D009746009B2C004A
:102450009A468B465B46022B31D15346FF2100241E
:1024600038E0002C17D10423994600239846013305
:102470009B46AFE7FF20002D0BD10221DAE72800B1
:1024800000F05AFA431F9D4076235B42181A002140
:10249000AFE70321ADE7200000F04EFA431F9C4058
:1024A00076235B421B1A9846002399469B4691E788
:1024B0000C239946F3339846FC3B9B468AE7032B53
:1024C00000D1A5E05546012B00D081E00123002179
:1024D00000242B406402C905600ADB070843184347
:1024E00003B03CBC90469946A246AB46F0BD802462
:1024F0000023E403FF21EDE7FF210024EAE70123A5
:10250000591A1B2966DD019A134000210024E1E7D6
:102510008023DB031C4238D01D4251D01C4364028F
:10252000640A3300FF21D5E763016C01A3423BD26B
:102530001B260021013801251F0049005B00002FE8
:1025400001DB9C4201D81B1B2943013E002EF3D125
:102550001C00631E9C410C4301007F310029CEDD2D
:10256000630704D00F232340042B00D0043423013D
:1025700003D501002C4B80311C40FE290DDD0123C9
:10258000019AFF2113400024A4E78023DB031C43AE
:102590006402640A3300FF219CE70123019AA4012D
:1025A000640AC9B2134095E71B1B1A260121C2E732
:1025B000009B8B469A4600244CE76302E5D5002534
:1025C0008024E4032C436402640A009BFF2181E71A
:1025D0000195C1E723002020CB40411A8C40611EA9
:1025E0008C411C43630704D00F232340042B00D0ED
:1025F0000434630105D50123019A0121134000240D
:1026000068E70123019AA401640A1340002161E7ED
:102610008023DB031C436402640A5346FF2159E70D
:102620009C320000DC320000FFFFFFF7F8B5574690
:102630004E464546DE46E0B54702460088467F0ADC
:10264000360EC40F002E47D0FF2E24D0FB0080276B
:10265000FF041F43002399469A467F3E43465D028E
:102660005800DB0F6D0A000E984643D0FF283BD080
:10267000EB0080250022ED041D437F383618731CC3
:1026800041469B464B46614013430F2B64D8754827
:102690009B00C3589F46002F42D108239946063B12
:1026A000FF269A46DAE74146022A28D0032A00D1BB
:1026B000CEE0012A00D0ACE0114000200022CCB2D4
:1026C0004002D205400AE407104320433CBC904638
:1026D0009946A246AB46F8BD002F15D10423994672
:1026E000033B00269A46B9E7FF200222002DC5D001
:1026F0000322C3E7002D19D100200122BEE70124E7
:10270000FF220C400020DBE7380000F015F97626A8
:10271000431F9F4000237642361A99469A469DE70A
:102720000C239946093BFF269A4697E7280000F0BC
:1027300003F9431F9D4076235B42181A00229DE750
:1027400080200024C003FF22BAE73D005246ABE7D9
:102750003D0021005246A7E73B0C9C462A04120C80
:102760002B0C1400604665463F043F0C7C434243FB
:102770005D437B43270C9B18FF18BA4203D9802383
:102780005B029C46654424043A04240C121993010C
:102790005C1EA3413F0C920E7D191A43AD011543F7
:1027A0002B0104D501235E466A081D401543320003
:1027B0007F32002A25DD6B0704D00F232B40042B2A
:1027C00000D004352B0103D53200274B80321D4049
:1027D000FE2A94DC0124A801400AD2B20C406FE723
:1027E0008020C003074207D0054205D1284340029C
:1027F000400A4446FF2263E738434002400AFF2272
:102800005EE70124A31A1B2B05DD0C4000220020EB
:1028100056E75E46CBE72A002020DA40C31A9D40E7
:102820002B005D1EAB4113435A0704D00F221A4000
:10283000042A00D004335A0104D5012401220C409B
:1028400000203DE701249B01580A0C40002237E795
:1028500080200124C00328434002400A0C40FF228C
:102860002EE7C0461C330000FFFFFFF74102430084
:10287000C20F490A1B0E00207E2B0DDD9D2B0CDCA8
:10288000802000040143952B0ADC9620C31AD9400E
:102890004842002A00D108007047034BD018FBE7DC
:1028A000963B9940F4E7C046FFFFFF7F10B5041E3A
:1028B00027D000F041F89E231B1A962B0ADC9622A3
:1028C000D21A94406402640ADBB26402DB05600A37
:1028D000184310BD992B17DC9922D21A002A27DD44
:1028E00094402200134C1440510704D00F210A4099
:1028F000042A00D00434620112D4A401640ADBB2B9
:10290000E3E700230024E0E7B9222100D21A914036
:102910000A00511E8A410521091ACC401443DBE705
:10292000044B1C409F23A4011B1A640ADBB2CCE7B2
:102930002200D7E7FFFFFFFB1C2101231B04984265
:1029400001D3000C10391B0A984201D3000A083940
:102950001B09984201D30009043902A2105C4018F7
:102960007047C0460403020201010101000000009B
:102970000000000010B5062000F064F8012000F00F
:1029800091F8000070B500260C4D0D4C641BA4108E
:10299000A64209D1002600F011FD0A4D0A4C641B25
:1029A000A410A64205D170BDB300EB58984701367C
:1029B000EEE7B300EB5898470136F2E7C833000062
:1029C000C8330000C8330000E4330000002310B512
:1029D0009A4200D110BDCC5CC4540133F8E7030027
:1029E0008218934200D1704719700133F9E770B52E
:1029F00004000D001F2904D9162303600120404262
:102A000070BD436C002B04D08A009B181A68002A02
:102A100008D1200000F032F82A000100200000F068
:102A20001BF8EDE70020012AEAD0511C03D1162340
:102A300001302360E4E7002428001C609047200058
:102A4000DEE7000010B5034B01001868FFF7CFFF69
:102A500010BDC04604000020002370B5064C0500E0
:102A600008001100236000F015F8431C03D123680F
:102A7000002B00D02B6070BDC405002010B500F005
:102A800001F810BD58220120014B40421A607047E6
:102A9000C405002058220120014B40421A607047B3
:102AA000C4050020FEE7C046010706030402050036
:102AB00001000000080000004000000000020000CB
:102AC00000000100000008000200000010000000EB
:102AD0008000000000040000000002000000400030
:102AE00004000000200000000001000000080000B9
:102AF000000004000000800000000001FA00000057
:102B000000000000000000000000000000000000C5
:102B100000000000780084008A008D00910095007C
:102B20009A009E00A300A800AE00B400BA00C10045
:102B3000C800CF00D700DF00E800F200FC0007016A
:102B400012011E012B01390147015701670178016C
:102B50008B019E01B301C901E101FA0114023102A6
:102B60004F026E029002B402DA0203032E035B03EB
:102B70008C03BF03F60330046E04B00400000000B1
:102B80000000000000000000000000000200000043
:102B900008000000100000001200000014000000F7
:102BA000200000002C00000032000000E43800008B
:102BB000ABAA00008EE30000ABAA0000E4380000DE
:102BC0000000000055550000398E0000ABAA00003F
:102BD000398E000055550000E4380000C771000030
:102BE000398E0000398E0000C77100005555000075
:102BF00055550000C771000000000000AB2A00001E
:102C00005555000000800000ABAA000055D500001B
:102C100000000000AB2A00005555000000800000B5
:102C2000ABAA000055D5000055150000004000007B
:102C3000AB6A00005595000000C00000ABEA000040
:102C400000000000000000000A0000002D1200003B
:102C50003112000002000000960000003D1C000040
:102C6000411C000003000000C80000009D1B000084
:102C7000A11B0000040000009600000039170000AE
:102C80003D17000005000000C8000000711700009B
:102C900075170000060000002C010000B9190000A3
:102CA000E5190000070000002C01000019180000C1
:102CB00045180000010000002C0100005114000024
:102CC0007D14000000000000000000000000000073
:102CD00000000000997A0000FC69000075230000E4
:102CE00041F2000054C400005F9900008E360000DD
:102CF000F51A0000B23D00001B5F0000149E0000AA
:102D00005C7F000060E50000285F0000EEFB000033
:102D1000546300008689000049DE00007949000004
:102D2000AEC60000CDFB00007E3D000059F600005D
:102D300074D50000048600004CA700000534000094
:102D4000DCC60000648D0000C5BE0000234B0000FF
:102D500025E60000BE110000E5500000C7EA0000B3
:102D6000F6280000E71D000048510000A0CA00003E
:102D7000A08A0000B1210000B93C000042BE000062
:102D800052E80000716C0000E474000036AD0000F1
:102D9000519B000098AD0000DB09000042CF00000D
:102DA0000A6700007CF20000575B0000152D000050
:102DB000B2ED000095E5000066760000AE37000039
:102DC0002B1700006F210000F1030000B2BE0000CD
:102DD0008FB30000B82E000066F60000210F00003F
:102DE000A2B50000984C0000DAAB000062C1000000
:102DF000A7C9000098DD0000E96800006C19000018
:102E0000ED5D00009A97000041020000970F00005E
:102E1000AF350000AEF700007EBD0000F3AF00004C
:102E2000CCFF000061C2000065190000B6C30000BD
:102E3000E2480000F59A0000667700006705000090
:102E4000356E0000F56B0000449900005CAF000097
:102E5000143F000015DC0000AAB10000341100008E
:102E60007C110000B7C20000FB8B0000682100004D
:102E7000869900004FEF000034210000E6FF0000BB
:102E80007D2E0000B0A2000066C70000ECBF00006D
:102E9000390600003954000015FC0000EC61000008
:102EA000FFF10000E1EB0000B78200006774000052
:102EB0001BBD0000923C000059760000CC2D0000A4
:102EC000F7240000BA4B0000D171000042CE000090
:102ED0004C170000144E000027D200009AD90000C1
:102EE0002F7D00005D4E00007F0B0000BF4D0000F5
:102EF000CEB800000308000077BE000064EC0000BC
:102F000098BC0000DCA700002E30000046860000C0
:102F10007D400000866800002D430000DAFC0000C0
:102F20004ACC000055D000005D6C00001902000082
:102F300033D40000302A0000D5E90000A1180000B9
:102F40003C0E000010FA000056AD000070EF0000CB
:102F50007F4B00001F040000C8180000C8D7000005
:102F6000957400007F9900002D020000DBA900008D
:102F7000A64B00000C3200009D810000024A0000B8
:102F8000ECC10000077F00005EBB0000B4580000E9
:102F9000F99F0000C383000018B60000EB23000077
:102FA00096C30000BEBF0000D5A70000EB020000E2
:102FB00059470000E77B000086080000E377000027
:102FC000784B0000C02C00003D4A00002BB60000EA
:102FD000375A0000DE230000AF44000074F6000002
:102FE00063CE00002E0000006EB30000F4BD0000B0
:102FF0005299000009BA00000C2200004489000028
:10300000A4B00000DFCF000062F00000AE88000036
:10301000775E00008350000020610000F0B70000E0
:1030200024D700008F1200008A1F00000E6F0000DE
:10303000B4390000CC9D0000DEB30000B25D00009A
:10304000D6F50000293B0000DBF9000081550000A7
:103050005EAA00006C680000FACD00004518000070
:10306000FEB5000051CA0000D8B00000A09A0000D0
:1030700061920000E9780000F9C0000077BE00000E
:103080009EBF0000A60B0000A9F400003F950000C1
:103090004B4A00001C8C0000E06C0000022A00007B
:1030A000AAA0000050BD0000F5FB00004850000041
:1030B00085DC00005B520000771E00002E900000AF
:1030C0005B330000A5BD00000A180000B96C0000C9
:1030D0003A62000000000100000001000000010051
:1030E000CDCC00009A9900000080000066660000C8
:1030F000CD4C0000CD4C00003333000033330000D2
:103100009A1900009A1900009A19000000000000A6
:1031100000000000000000000000000000000000AF
:10312000000000000000000000000000000000009F
:10313000000000000000000000000000000000008F
:10314000000000000000000000000000000000007F
:10315000000000000000000000000000000000006F
:10316000000000000000000000000000000000005F
:10317000000000000000000000000000000000004F
:10318000000000000000000000000000000000003F
:10319000000000000000000000000000000000002F
:1031A000000000000000000000000000000000001F
:1031B000000000000080000033B300009A99000076
:1031C00066660000008000006666000033B3000001
:1031D0009A990000008000009A9900000080000089
:1031E0006666000033B30000666600009A9900002E
:1031F0000080000000000100333300003333000082
:10320000008000000080000000800000000001003D
:1032100000800000008000000080000000800000AE
:10322000CD4C000000800000008000000080000005
:1032300066E60000008000000080000000800000C2
:103240000080000000800000CD4C000000800000E5
:10325000CD4C000000800000008000000000010054
:10326000CDCC000033B300009A990000008000002C
:10327000CD4C000033330000CD4C00000040000076
:10328000CD4C000033330000CD4C00000080000026
:103290009A99000033B30000CDCC0000282500002F
:1032A000F82400000A2500004C2400000A25000034
:1032B000EE2400000A2500004C240000F824000041
:1032C000F8240000EE2400004C24000054240000E8
:1032D000542400005424000010250000F8240000AD
:1032E000F8240000CC240000B0250000CC2400000D
:1032F000EE240000CC240000B0250000F8240000DB
:10330000F8240000EE240000B02500005424000042
:103310005424000054240000BA250000582700005F
:10332000A8260000A8260000A62600004A270000C4
:103330004A27000040270000A62600004A27000078
:10334000402700004A270000A62600005027000062
:103350005027000050270000E02700000000000078
:10336000000000000000000000000000000000005D
:10337000000000000000000000000000000000004D
:10338000000000000000000000000000000000003D
:10339000000000000000000000000000000000002D
:1033A000000000000000000000000000000000001D
:1033B000000000000000000000000000F8B5C0465A
:1033C000F8BC08BC9E467047CD000000050D00000B
:1033D00029110000F91C0000B11D00002D1E000085
:1033E000A91E0000F8B5C046F8BC08BC9E46704750
:0433F000A500000034
:1033F40040420F0008000020000000007C33000061
:103404009C3300005C33000000000000000000005A
:1034140000000000000000000000000000000000A8
:103424000000000000000000000000000000000098
:103434000000000000000000000000000000000088
:103444000000000000000000000000000000000078
:08345400000000000000000070
:00000001FF
