:060000000200540200C5DD
:03000B000200C828
:100010000000E2FBEAF2802C0000E0FBEAF0802422
:10002000E6B50202EBF62200E2B50202EBF2220094
:10003000E0B50202EBF02230F6E0A88220F5D3EA28
:10004000C6F582228B822230F6E6A88220F5D9807E
:01005000CFE0
:0300AD00020051FD
:030051000200B0FA
:1000B000D2A8D288758901758C00758A00D2A9D220
:0B00C0008CD2AF80FEB29032B29132C1
:06008300E478FFF6D8FD51
:100061007900E94400601B7A009000CF780175A007
:1000710000E493F2A308B8000205A0D9F4DAF275FE
:02008100A0FFDE
:100089007800E84400600A790175A000E4F309D812
:10009900FC7800E84400600C7900900001E4F0A3CA
:0400A900D8FCD9FAAC
:0D0054007581071200CBE5826003020051A8
:0400CB007582002218
:00000001FF
