:0300000002004CAF
:200008000000E2FBEAF2802C0000E0FBEAF08024E6B50202EBF62200E2B50202EBF22200DE
:20002800E0B50202EBF02230F6E0A88220F5D3EAC6F582228B822230F6E6A88220F5D980EE
:01004800CFE8
:0300A5000200490D
:030049000200BEF4
:2000A8007F007DFF7E001DBDFF011EED4E70F70FBFFF0040ED22D2901200A8C2901200A8E1
:0200C80080F4C2
:06007B00E478FFF6D8FD59
:200059007900E94400601B7A009000CE780175A000E493F2A308B8000205A0D9F4DAF2757F
:02007900A0FFE6
:200081007800E84400600A790175A000E4F309D8FC7800E84400600C7900900001E4F0A37D
:0400A100D8FCD9FAB4
:0D004C007581071200CAE5826003020049B9
:0400CA007582002219
:00000001FF
