:0300000002004EAD
:200008000000E2FBEAF2802C0000E0FBEAF08024E6B50202EBF62200E2B50202EBF22200DE
:20002800E0B50202EBF02230F6E0A88220F5D3EAC6F582228B822230F6E6A88220F5D980EE
:01004800CFE8
:0300A7000200490B
:050049001200AA80FE78
:2000AA00D2909003E81200BCC2909003E81200BC80EEAE82AF837C007D00C3EC9EED9F50FE
:1300CA00117B00BBBA0050030B80F80CBC00EB0D80E82202
:0200E100E80332
:06007D00E478FFF6D8FD57
:20005B007900E94400601B7A009000E3780175A000E493F2A308B8000205A0D9F4DAF27568
:02007B00A0FFE4
:200083007800E84400600A790175A000E4F309D8FC7800E84400600C7900900001E4F0A37B
:0400A300D8FCD9FAB2
:0D004E007581071200DDE5826003020049A4
:0400DD007582002206
:00000001FF
