:100000000EC018951895189518951FC11895189534
:1000100018951895189518951895189518958FE5B1
:100020008DBFC8E3E0E04E2E81E08EBFD1E0F1E06D
:100030005F2EEEEFF0E0A0E6B0E0A89584B7082EC2
:10004000877F84BF88E1992781BD91BD88278D93E3
:100050003197E9F7662480E187BBC49884E083BFC9
:1000600080E08ABD89B7826089BF789484E68093F6
:100070006000809160008093520086E886B980E03D
:1000800087B9379AABE6B0E0E6E4F7E00CD3EBE6ED
:10009000F0E08AD1EAE4F7E0DAD247D2EDE0F0E02E
:1000A000A7E6B0E008D384E690E0A3E6B0E08D9345
:1000B0009C9384E690E0A5E6B0E08D939C9307B115
:1000C000007F016007B924D1A3E6B0E08D939C9333
:1000D000EEE4F7E0C5D2E3E6F0E0D190E080FF2463
:1000E000002781D162D2EDE0F0E0AFE6B0E0E3D2EC
:1000F000A3E6B0E00D911C91EFE6F0E012D1E4E14F
:10010000F0E0EE0C000FE794D0921400E09215009E
:10011000040F151FA3E6B0E00D931C93A3E6B0E017
:100120000D911C91EFE6F0E0FCD0E4E1F0E0EE0C84
:10013000000FE794D0921400E0921500040F151FF1
:10014000A3E6B0E00D931C93A3E6B0E00D911C91E3
:10015000A5E6B0E04D915C91040F151FA1E6B0E05B
:100160000D931C93E1E6F0E0D190E080FF2400279E
:100170003AD16AD1E2E5F7E06AD2D7D1EDE0F0E01A
:10018000AFE6B0E098D2EFE6F0E00ED1E6E5F7E0BA
:100190005ED275D1EDE0F0E0AFE6B0E08CD2EFE6F4
:1001A000F0E002D1E7E6F0E0FAD0F0D1EDE0F0E0E7
:1001B000AFE6B0E080D2EBE6F0E0F6D0EFE6F0E0BC
:1001C000EED05DD1EDE0F0E0AFE6B0E074D2EFE666
:1001D000F0E07AD2EDE0F0E0A4D0A0E6B0E0DC926E
:1001E000EBE6F0E0E1D0E0E6F0E0D080EE24FF24A2
:1001F0000027F9D09AD1EDE0F0E0AFE6B0E05BD2B5
:10020000EFE6F0E0D1D0E7E6F0E0C9D0BFD1EDE015
:10021000F0E0AFE6B0E04FD2EFE6F0E0C5D0EAE5BF
:10022000F7E015D22CD1EDE0F0E0AFE6B0E043D23C
:10023000EFE6F0E049D2EDE0F0E073D0A1E6B0E007
:10024000DD92EC923CCFF894FFCF0F921F922F9249
:100250003F924F925F927F92AF92BF920F931F9304
:100260002F933F934F935F936F937F938F939F93BE
:10027000AF93BF93CF93DF93EF93FF938FB78F939A
:10028000809160008093520088B390E1892788BBF9
:10029000A5E6B0E02DD0A5E6B0E00D911C91083E9A
:1002A00053E0150710F009F001C006C084E690E0A5
:1002B000A5E6B0E08D939C938F918FBFFF91EF9156
:1002C000DF91CF91BF91AF919F918F917F916F916E
:1002D0005F914F913F912F911F910F91BF90AF90E0
:1002E0007F905F904F903F902F901F900F901895A8
:1002F000ED91FC91EF5FFF4FFC93EE9308953197E2
:10030000F1F70895689462F80895E89462F8089502
:10031000369A3699FECF369A3699FECF84B195B18A
:1003200008953DD0992711278F2D880F80E8F82A4E
:10033000802F881F08F41FEF41F08F57082F07FD0B
:1003400004C0003240F08FEF01C08827982FD82ECC
:10035000E82EF82E09C08FE1801B082FF694E79451
:10036000D79497950A95D1F7112351F09095D09491
:10037000E094F09481E0980F8827D81EE81EF81EBC
:100380000F2DFE2CED2CD92E0895D094E094F094EE
:1003900091E0D90E9927E91EF91E10950895D19084
:1003A000E190F19001910895219131914191519104
:1003B0000895102F90E8FF0C001F0927990FF7945C
:1003C0001078652F90E8440F551F5927990F4795CE
:1003D000607800380895FF0C90E89027110F9795EA
:1003E000F794092F0895102FBD2CDE2CEF2CF02E42
:1003F00011234AF4B094D094E094F0949FEFB91A8A
:10040000D90AE90AF90A0EE1FF2039F4FE2CED2C95
:10041000DB2CBB240850C2F766C032F00A95BB0C37
:10042000DD1CEE1CFF1CF9CF01D0D5CFB7FE08951F
:1004300090E8B91611F4D0FE08959FEFD91AE90A91
:10044000F90A09F403950895502F2D2D3E2D4F2DB7
:10045000612F08952DEC3CEC4CEC5DE366270FC05A
:100460009EDFF2DFDD24EE2490E8F92E0FE307C0D3
:100470009BDF05C02227332740E251E4662755233E
:1004800051F1002381F195DF71F116270058505882
:100490000894050B18F407FD03C025C007FD23C011
:1004A000469537952795F694E794D79422D0FF2068
:1004B0002AF0DD0CEE1CFF1C015073F09D2D96956B
:1004C00048F0DD203AF4EE202AF491E0D90E992785
:1004D000E91EF91E80CF07C09FE7092FF92A9FEF79
:1004E000D92EE92E0895DD24EE24FF2400271127BC
:1004F00008959F929924AA24BB2488E1D216E3068A
:10050000F40628F0D21AE30AF40A089401C0889489
:10051000991CAA1CBB1CDD0CEE1CFF1C8A9571F7F4
:10052000D92CEA2CFB2C9F90089543DFE1F2503840
:10053000D1F21627005850580894051F12F418F4E9
:10054000CBCF08F0D0CF0AD0FF202AF0BB0CDD1CA7
:10055000EE1CFF1C40CF0F5FFBF13DCF9F92992413
:10056000AA24BB24992788E1990CAA1CBB1CDD1C7A
:10057000EE1CFF1C30F4920EA31EB41ED91EE91E01
:10058000F91E8A9589F79F9008950EDF12DF503883
:1005900029F090E869270CC00AF045D01CCF5FE332
:1005A00022273327442701C0FFDE03DF5038B1F391
:1005B000003899F3902F951B8BF312F434D0FACFB7
:1005C000983118F0222733274427983028F0232F1A
:1005D000342F44279850F9CF992329F04695379521
:1005E00027959A95D9F7912F962742F014D0B0F617
:1005F000F794E794D7940F5F8BF66ECF10D051F03D
:1006000008F4C3DEFF2052F2DD0CEE1CFF1C01508B
:10061000CBF762CF68CFD20EE31EF41E0895D21A34
:10062000E30AF40A0895DF92EF92FF920F931F936B
:10063000D22EE32EF42E052F162F6F915F914F913E
:100640003F912F910895C895319600200895FBDFC2
:10065000D02CF9DFE02CF7DFF02CF5DF002D08952A
:10066000F2DF202DF0DF302DEEDF402DECDF502DBE
:10067000089507FB00680EF40F7757FB50680EF4DF
:100680005F7707FD02C057FF05C0D216E306F406E8
:10069000050708952D153E054F055007089591E073
:1006A00005C092E003C094E001C098E0CCDF0D9259
:1006B0009A95E1F7089594E081918D939A95E1F7E9
:1006C00008956DDE80E003C06ADE802F8078882385
:1006D00021F0DF92EF92FF920F938F936ADE802FCB
:1006E000839512F400DF1BC080958A95885E0AF41A
:1006F00015C088501AF40CD0D92210C0DD248850BF
:100700001AF406D0E9220AC0EE2402D0F92206C06B
:100710009FEF8770990F8A95EAF708955CDE8F91B5
:100720008823D9F35F914F913F912F910F93A1DFD0
:100730000F9199F390F302D0506837CF5FE340E810
:10074000332722270895BD37063800008043000074
:0E075000C842000000400000803F0000003F53
:00000001FF
